{
  "_format": "hh-sol-artifact-1",
  "contractName": "Transactions",
  "sourceName": "contracts/Transactions.sol",
  "abi": [
    {
      "anonymous": false,
      "inputs": [
        {
          "indexed": false,
          "internalType": "address",
          "name": "from",
          "type": "address"
        },
        {
          "indexed": false,
          "internalType": "address",
          "name": "receiver",
          "type": "address"
        },
        {
          "indexed": false,
          "internalType": "uint256",
          "name": "amount",
          "type": "uint256"
        },
        {
          "indexed": false,
          "internalType": "string",
          "name": "message",
          "type": "string"
        },
        {
          "indexed": false,
          "internalType": "uint256",
          "name": "timestamp",
          "type": "uint256"
        },
        {
          "indexed": false,
          "internalType": "string",
          "name": "keyword",
          "type": "string"
        }
      ],
      "name": "Transfer",
      "type": "event"
    },
    {
      "inputs": [],
      "name": "getAllTransactions",
      "outputs": [
        {
          "components": [
            {
              "internalType": "address",
              "name": "sender",
              "type": "address"
            },
            {
              "internalType": "address",
              "name": "receiver",
              "type": "address"
            },
            {
              "internalType": "uint256",
              "name": "amount",
              "type": "uint256"
            },
            {
              "internalType": "string",
              "name": "message",
              "type": "string"
            },
            {
              "internalType": "uint256",
              "name": "timestamp",
              "type": "uint256"
            },
            {
              "internalType": "string",
              "name": "keyword",
              "type": "string"
            }
          ],
          "internalType": "struct Transactions.TransferStruct[]",
          "name": "",
          "type": "tuple[]"
        }
      ],
      "stateMutability": "view",
      "type": "function"
    },
    {
      "inputs": [],
      "name": "getTransactionCount",
      "outputs": [
        {
          "internalType": "uint256",
          "name": "",
          "type": "uint256"
        }
      ],
      "stateMutability": "view",
      "type": "function"
    },
    {
      "inputs": [
        {
          "internalType": "address",
          "name": "receiver",
          "type": "address"
        },
        {
          "internalType": "uint256",
          "name": "amount",
          "type": "uint256"
        },
        {
          "internalType": "string",
          "name": "message",
          "type": "string"
        },
        {
          "internalType": "string",
          "name": "keyword",
          "type": "string"
        }
      ],
      "name": "transferAmount",
      "outputs": [],
      "stateMutability": "nonpayable",
      "type": "function"
    }
  ],
  "bytecode": "0x608060405234801561001057600080fd5b50610bb6806100206000396000f3fe608060405234801561001057600080fd5b50600436106100415760003560e01c806327506f53146100465780632e7700f014610064578063b38c000714610082575b600080fd5b61004e61009e565b60405161005b91906108aa565b60405180910390f35b61006c6102e1565b60405161007991906108cc565b60405180910390f35b61009c600480360381019061009791906105e1565b6102ea565b005b60606001805480602002602001604051908101604052809291908181526020016000905b828210156102d857838290600052602060002090600602016040518060c00160405290816000820160009054906101000a900473ffffffffffffffffffffffffffffffffffffffff1673ffffffffffffffffffffffffffffffffffffffff1673ffffffffffffffffffffffffffffffffffffffff1681526020016001820160009054906101000a900473ffffffffffffffffffffffffffffffffffffffff1673ffffffffffffffffffffffffffffffffffffffff1673ffffffffffffffffffffffffffffffffffffffff168152602001600282015481526020016003820180546101ab90610a82565b80601f01602080910402602001604051908101604052809291908181526020018280546101d790610a82565b80156102245780601f106101f957610100808354040283529160200191610224565b820191906000526020600020905b81548152906001019060200180831161020757829003601f168201915b505050505081526020016004820154815260200160058201805461024790610a82565b80601f016020809104026020016040519081016040528092919081815260200182805461027390610a82565b80156102c05780601f10610295576101008083540402835291602001916102c0565b820191906000526020600020905b8154815290600101906020018083116102a357829003601f168201915b505050505081525050815260200190600101906100c2565b50505050905090565b60008054905090565b60016040518060c001604052803373ffffffffffffffffffffffffffffffffffffffff1681526020018673ffffffffffffffffffffffffffffffffffffffff16815260200185815260200184815260200142815260200183815250908060018154018082558091505060019003906000526020600020906006020160009091909190915060008201518160000160006101000a81548173ffffffffffffffffffffffffffffffffffffffff021916908373ffffffffffffffffffffffffffffffffffffffff16021790555060208201518160010160006101000a81548173ffffffffffffffffffffffffffffffffffffffff021916908373ffffffffffffffffffffffffffffffffffffffff1602179055506040820151816002015560608201518160030190805190602001906104229291906104ac565b506080820151816004015560a08201518160050190805190602001906104499291906104ac565b505050600160008082825461045e91906109ae565b925050819055507f416cfa4330a4565f45c2fd2dd4826a83a37443aba2ce6f79477c7355afac35fa33858585428660405161049e9695949392919061083b565b60405180910390a150505050565b8280546104b890610a82565b90600052602060002090601f0160209004810192826104da5760008555610521565b82601f106104f357805160ff1916838001178555610521565b82800160010185558215610521579182015b82811115610520578251825591602001919060010190610505565b5b50905061052e9190610532565b5090565b5b8082111561054b576000816000905550600101610533565b5090565b600061056261055d84610918565b6108e7565b90508281526020810184848401111561057a57600080fd5b610585848285610a40565b509392505050565b60008135905061059c81610b52565b92915050565b600082601f8301126105b357600080fd5b81356105c384826020860161054f565b91505092915050565b6000813590506105db81610b69565b92915050565b600080600080608085870312156105f757600080fd5b60006106058782880161058d565b9450506020610616878288016105cc565b935050604085013567ffffffffffffffff81111561063357600080fd5b61063f878288016105a2565b925050606085013567ffffffffffffffff81111561065c57600080fd5b610668878288016105a2565b91505092959194509250565b6000610680838361078d565b905092915050565b61069181610a04565b82525050565b6106a081610a04565b82525050565b60006106b182610958565b6106bb818561097b565b9350836020820285016106cd85610948565b8060005b8581101561070957848403895281516106ea8582610674565b94506106f58361096e565b925060208a019950506001810190506106d1565b50829750879550505050505092915050565b600061072682610963565b610730818561098c565b9350610740818560208601610a4f565b61074981610b41565b840191505092915050565b600061075f82610963565b610769818561099d565b9350610779818560208601610a4f565b61078281610b41565b840191505092915050565b600060c0830160008301516107a56000860182610688565b5060208301516107b86020860182610688565b5060408301516107cb604086018261081d565b50606083015184820360608601526107e3828261071b565b91505060808301516107f8608086018261081d565b5060a083015184820360a0860152610810828261071b565b9150508091505092915050565b61082681610a36565b82525050565b61083581610a36565b82525050565b600060c0820190506108506000830189610697565b61085d6020830188610697565b61086a604083018761082c565b818103606083015261087c8186610754565b905061088b608083018561082c565b81810360a083015261089d8184610754565b9050979650505050505050565b600060208201905081810360008301526108c481846106a6565b905092915050565b60006020820190506108e1600083018461082c565b92915050565b6000604051905081810181811067ffffffffffffffff8211171561090e5761090d610b12565b5b8060405250919050565b600067ffffffffffffffff82111561093357610932610b12565b5b601f19601f8301169050602081019050919050565b6000819050602082019050919050565b600081519050919050565b600081519050919050565b6000602082019050919050565b600082825260208201905092915050565b600082825260208201905092915050565b600082825260208201905092915050565b60006109b982610a36565b91506109c483610a36565b9250827fffffffffffffffffffffffffffffffffffffffffffffffffffffffffffffffff038211156109f9576109f8610ab4565b5b828201905092915050565b6000610a0f82610a16565b9050919050565b600073ffffffffffffffffffffffffffffffffffffffff82169050919050565b6000819050919050565b82818337600083830152505050565b60005b83811015610a6d578082015181840152602081019050610a52565b83811115610a7c576000848401525b50505050565b60006002820490506001821680610a9a57607f821691505b60208210811415610aae57610aad610ae3565b5b50919050565b7f4e487b7100000000000000000000000000000000000000000000000000000000600052601160045260246000fd5b7f4e487b7100000000000000000000000000000000000000000000000000000000600052602260045260246000fd5b7f4e487b7100000000000000000000000000000000000000000000000000000000600052604160045260246000fd5b6000601f19601f8301169050919050565b610b5b81610a04565b8114610b6657600080fd5b50565b610b7281610a36565b8114610b7d57600080fd5b5056fea2646970667358221220ed9ead2cacabc75073052e8a11826bc2708545421882d72e7665a035c848625b64736f6c63430008000033",
  "linkReferences": {},
  "deployedLinkReferences": {}
}